:020000040000FA
:100000000C9462000C948A000C948A000C948A0070
:100010000C948A000C948A000C948A000C948A0038
:100020000C948A000C948A000C948A000C94C808E2
:100030000C948A000C948A000C948A000C948A0018
:100040000C947E080C948A000C944C080C9426089E
:100050000C948A000C948A000C948A000C948A00F8
:100060000C948A000C948A000000000025002800EF
:100070002B0000000000240027002A0000000008D8
:10008000000201000003040700000000000000005F
:1000900000000000230026002900040404040404D6
:1000A0000404020202020202030303030303010227
:1000B00004081020408001020408102001020408F6
:1000C0001020F30811241FBECFEFD8E0DEBFCDBF54
:1000D00012E0A0E0B1E0E4EFF9E102C005900D927A
:1000E000A83DB107D9F724E0A8EDB2E001C01D9208
:1000F000A932B207E1F710E0C2E6D0E004C02197D0
:10010000FE010E94F20CC136D107C9F70E94DD0939
:100110000C94F80C0C9400008CBD9DBD089580914A
:100120000904E0910A04F0910B04F8949181282FBE
:1001300020959223918378943DE743E050E031503D
:1001400029F1DA011197F1F790819823C1F3F8941E
:100150009281922392839181982B91837894ABE73B
:10016000B7E01197F1F7F894918192239183A3E17D
:10017000B1E01197F1F79081982381E009F080E0D8
:100180007894E3E6F6E03197F1F7089580E008957A
:10019000CF92DF92EF92FF920F931F93CF93DF9353
:1001A00028E030E041E06FEF70E09FE0C92ED12CF5
:1001B000C3E2D0E007ED10E090910904E0910A0459
:1001C000F0910B04F92EF094582F542389F1F894F0
:1001D00052815F2152835181592B5183DE01119746
:1001E000F1F75281952B92837894F8013197F1F7CA
:1001F000440F2150310901F7F894E0910A04F0917D
:100200000B04918180910904809598239183E0915A
:100210000A04F0910B049281892382837894DF9100
:10022000CF911F910F91FF90EF90DF90CF900895A5
:10023000F89452815F2152835181592B5183DB0104
:100240001197F1F75281952B92837894F601CECFD6
:1002500080910904E0910A04F0910B04F8949181D3
:10026000982B91832281382F309523232283A7E076
:10027000B0E01197F1F7918193239183A3E2B0E06D
:100280001197F1F790817894EFECF0E03197F1F766
:10029000982381E009F480E00895AF92BF92CF9255
:1002A000DF92EF92FF920F931F93CF93DF936C0136
:1002B0007B018B01040F151FEB015E01AE18BF0817
:1002C000C017D10759F06991D601ED91FC910190C9
:1002D000F081E02DC6010995892B79F7C501DF91E1
:1002E000CF911F910F91FF90EF90DF90CF90BF9033
:1002F000AF900895FC01538D448D252F30E0842F5D
:1003000090E0821B930B541710F0CF96089501973D
:100310000895FC01918D828D981761F0A28DAE0F2A
:10032000BF2FB11D5D968C91928D9F5F9F73928FB1
:1003300090E008958FEF9FEF0895FC01918D828DDD
:10034000981731F0828DE80FF11D858D90E00895AA
:100350008FEF9FEF0895FC01918D228D892F90E002
:10036000805C9F4F821B91098F73992708958EEFB0
:1003700092E00E94AB0121E0892B09F420E0822F5A
:10038000089580E090E0892B29F00E94B701811147
:100390000C9400000895FC01A48DA80FB92FB11D85
:1003A000A35ABF4F2C91848D90E001968F739927AB
:1003B000848FA689B7892C93A089B1898C91837089
:1003C00080648C93938D848D981306C00288F38982
:1003D000E02D80818F7D80830895EF92FF920F93AF
:1003E0001F93CF93DF93EC0181E0888F9B8D8C8DE1
:1003F00098131AC0E889F989808185FF15C09FB7D5
:10040000F894EE89FF896083E889F9898081837097
:10041000806480839FBF81E090E0DF91CF911F9146
:100420000F91FF90EF900895F62E0B8D10E00F5F67
:100430001F4F0F731127E02E8C8D8E110CC00FB63D
:1004400007FCFACFE889F989808185FFF5CFCE01D5
:100450000E94CB01F1CFEB8DEC0FFD2FF11DE35A84
:10046000FF4FF0829FB7F8940B8FEA89FB89808158
:100470008062CFCFCF93DF93EC01888D8823B9F0D2
:10048000AA89BB89E889F9898C9185FD03C080819F
:1004900086FD0DC00FB607FCF7CF8C9185FFF2CF1C
:1004A000808185FFEDCFCE010E94CB01E9CFDF91A6
:1004B000CF910895833081F028F4813099F0823013
:1004C000A9F008958730A9F08830C9F08430B1F4DC
:1004D000809180008F7D03C0809180008F77809312
:1004E0008000089584B58F7784BD089584B58F7D8D
:1004F000FBCF8091B0008F778093B00008958091FA
:10050000B0008F7DF9CFCF93DF93282F30E0F90132
:10051000E458FF4F8491F901E255FF4FD491F9015E
:10052000E656FF4FC491CC23A1F081110E945A02DC
:10053000EC2FF0E0EE0FFF1FE057FF4FA591B491B5
:10054000EC91ED2381E090E009F480E0DF91CF9120
:10055000089580E090E0FACF1F93CF93DF93282F88
:1005600030E0F901E458FF4F8491F901E255FF4F63
:10057000D491F901E656FF4FC491CC23A9F0162F70
:1005800081110E945A02EC2FF0E0EE0FFF1FE85994
:10059000FF4FA591B4918FB7F894EC91111108C059
:1005A000D095DE23DC938FBFDF91CF911F9108950B
:1005B000DE2BF8CFCF93DF9390E0FC01E255FF4FA5
:1005C000249186569F4FFC0184918823C9F090E0C6
:1005D000880F991FFC01EE58FF4FA591B491FC01C3
:1005E000E859FF4FC591D49161110DC09FB7F894A0
:1005F0008C91209582238C938881282328839FBF08
:10060000DF91CF910895623051F49FB7F8943C91F7
:10061000822F809583238C93E8812E2BEFCF8FB789
:10062000F894EC912E2B2C938FBFEACFCF93DF93CE
:10063000EC0161E083E00E94DA02209731F460E08F
:1006400083E0DF91CF910C94AC02CF3FD10511F440
:1006500061E0F6CFEFE7F0E0E491E33029F140F418
:10066000E130B1F0E230D9F0C038D1058CF7E7CFF6
:10067000E73021F1E83051F1E430B1F780918000AA
:10068000806280938000D0938B00C0938A0004C066
:1006900084B5806884BDC7BDDF91CF91089584B5CE
:1006A000806284BDC8BDF8CF80918000806880934F
:1006B0008000D0938900C0938800EECF8091B00075
:1006C00080688093B000C093B300E6CF8091B00003
:1006D00080628093B000C093B400DECF8091F002BE
:1006E000813071F48093000190910001992369F0A9
:1006F0008F5F8093F0028091F00290E00C941603DB
:100700008F3F91F710920001EFCF8150F2CF80918F
:10071000F0029091EE0289130AC080916F008D7FE4
:1007200080936F008091F00290E00C94160320916A
:10073000EF02291720F48F5F8093F002F3CF8150EE
:10074000FBCF8F929F92AF92BF92CF92DF92EF92A8
:10075000FF92CF93DF93FC012081318137FD40C0B0
:10076000EC01822F0E948302288539854FB7F894C7
:10077000C090E602D090E702E090E802F090E90233
:100780004FBF4DA55EA54115510561F48217930732
:1007900039F581E090E09EA78DA7CFA6D8AAE9AA57
:1007A000FAAA1EC04130510509F069C04FA558A9E9
:1007B00069A97AA946015701841A950AA60AB70AB7
:1007C000B501A40182179307F9F08A819B81B0E0FB
:1007D000A0E0481759076A077B0768F41EA61DA604
:1007E000DF91CF91FF90EF90DF90CF90BF90AF90CF
:1007F0009F908F90089582E090E09EA78DA7CBAA4E
:10080000DCAAEDAAFEAAECCF8E819F81B0E0A0E029
:1008100084179507A607B70710F581E08A87EF8947
:10082000F88D309709F00995EB8DFC8D309709F024
:100830000995ED8DFE8D309719F08F8D98A1099552
:10084000EFA1F8A5309709F00995E9A5FAA5309729
:1008500019F08BA59CA5099586E090E0CECFE98D97
:10086000FA8D309709F4BCCFDF91CF91FF90EF90D4
:10087000DF90CF90BF90AF909F908F9009944230BF
:10088000510509F044C049895A89452B21F44B8907
:100890005C89452B99F04FA558A969A97AA9460109
:1008A0005701841A950AA60AB70A4C815D8170E047
:1008B00060E0481559056A057B0570F4EB85FC85F9
:1008C000309709F00995ED85FE85309709F486CFBC
:1008D0008F859889099582CF8217930709F080CF79
:1008E0008BA99CA9ADA9BEA9B701A601481B590BAC
:1008F0006A0B7B0B8A819B81B0E0A0E0841795078F
:10090000A607B70708F06CCF83E090E044CF4330F0
:10091000510539F58217930709F462CF8FA598A97D
:10092000A9A9BAA9B701A601481B590B6A0B7B0BF1
:100930008A819B81B0E0A0E084179507A607B707DE
:1009400008F04ECFE989FA89309709F00995EB89CB
:10095000FC89309719F08D899E8909951EA61DA6E0
:100960004ECF4630510509F03BCF8217930769F00F
:100970001A86E9A1FAA1309709F00995EBA1FCA12B
:10098000309761F38DA19EA1E8CF81E08A87EFA126
:10099000F8A5309709F00995E9A5FAA5309709F46B
:1009A0001FCF8BA59CA5DF91CF91FF90EF90DF909B
:1009B000CF90BF90AF909F908F90099408958EBD77
:1009C00000000DB407FEFDCF8EB508951F93CF93A1
:1009D000DF93182F80E591E00E948C00C7E1D4E0FE
:1009E00060E088890E94AC0283E00E94DF04812FCE
:1009F0000E94DF0480E00E94DF04182F61E08889F4
:100A00000E94AC02812FDF91CF911F910895FF9238
:100A10000F931F93CF93DF93F82E062F142F80E5AB
:100A200091E00E948C00C7E1D4E060E088890E94D8
:100A3000AC0285E00E94DF048F2D0E94DF04802F2E
:100A40000E94DF04812F0E94DF0461E08889DF912A
:100A5000CF911F910F91FF900C94AC02CF93C82FB0
:100A6000482F60EE8FE00E9407058FE00E94E604A9
:100A7000982F907E81E09C1301C080E0CF91089573
:100A8000FF920F931F93CF93DF93C82FF62E172F4C
:100A9000042F80E591E00E948C0060E080912704A3
:100AA0000E94AC0282E00E94DF048C2F0E94DF04CF
:100AB000CF2DD12F0C0F1D2F111DC017D10721F0E5
:100AC00089910E94DF04F9CF61E080912704DF91D2
:100AD000CF911F910F91FF900C94AC02CF93DF93B5
:100AE00000D000D0CDB7DEB79A01442755271C822D
:100AF0001B82922F6130E1F493709860622F660F31
:100B0000660F660F607E962B9A8345E03695279593
:100B10004A95E1F7298344E0BE016F5F7F4F0E9451
:100B200040050F900F900F900F90DF91CF91089597
:100B30009295990F907E9A8393E0369527959A9592
:100B4000E1F7E8CF0F931F93CF93DF93082F162F72
:100B500080E591E00E948C00C7E1D4E060E08889E4
:100B60000E94AC0282E00E94DF04802F0E94DF041A
:100B7000812F0E94DF0461E08889DF91CF911F916E
:100B80000F910C94AC024F925F926F928F929F9252
:100B9000AF92BF92CF92DF92FF920F931F93CF93AA
:100BA000DF9300D000D0CDB7DEB704E011E020E045
:100BB00030E0009318041093190420931A04309322
:100BC0001B04109225041092170480931C04FB014F
:100BD000ADE1B4E0CB01089621912D93E817F90718
:100BE000D9F7B12CA12C40900701509008016090DA
:100BF00009014E0184E0880E911C49825A826B8261
:100C0000FE0131966F01FE2E0D2DF60111916F013F
:100C1000812F0E94E60483FD0DC01F5F80E0FFEF7F
:100C2000AF1ABF0A823061F482E3A816B10429F733
:100C300096E072C08C149D0441F710E082E0EFCF83
:100C400092E3A916B104A1F340911C046DE174E094
:100C500085E0810F0E94400580912504813029F4B0
:100C600080911C04806480931C0460911C0484E0C7
:100C7000810F0E94A20540911804509119046091BF
:100C80001A0470911B0480911704813099F54C83EC
:100C90005B83AB0166277727842F83708860942F4E
:100CA000990F990F990F907E892B8A8365E056954D
:100CB00047956A95E1F7498344E06F2D702F812FA6
:100CC0000E944005115048E068E0812F0E9407050E
:100CD000D12CC12CEFEFCE1ADE0A812F0E94E60440
:100CE000982F987083FF14C0F2E3CF16D10491F7C8
:100CF00097E012C0CA0123E0969587952A95E1F7FF
:100D000089834295440F407E4A831C821B82D4CF44
:100D100082E3C816D10461F3892F0F900F900F90D2
:100D20000F90DF91CF911F910F91FF90DF90CF90A7
:100D3000BF90AF909F908F906F905F904F9008956D
:100D4000FF920F931F93CF93DF93C82FF62E172F89
:100D5000042F80E591E00E948C0060E080912704E0
:100D60000E94AC0283E00E94DF048C2F0E94DF040B
:100D7000CF2DD12F0C0F1D2F111DC017D10729F01A
:100D800080E00E94DF048993F8CF61E0809127041E
:100D9000DF91CF911F910F91FF900C94AC020F93B4
:100DA0001F93CF93DF9300D000D0CDB7DEB7182FBD
:100DB00010921704109218041092190410921A0439
:100DC00010921B0444E0BE016F5F7F4F0E94A0069B
:100DD0002A81898138E0839FC0011124422F50E08D
:100DE00065E0559547956A95E1F7840F951F092EA3
:100DF000000CAA0BBB0B8093180490931904A093CA
:100E00001A04B0931B0423FF29C032E0880F991FF6
:100E1000AA1FBB1F3A95D1F72370820F911DA11D08
:100E2000B11DBA2FA92F982F88272B81820F911DD2
:100E3000A11DB11DBA2FA92F982F88272C81820FB1
:100E4000911DA11DB11D8093180490931904A093C6
:100E50001A04B0931B0481E0809317048FEF810F75
:100E60000E94E604082F84E0810F0E94E60403FF3D
:100E700016C091E090932504482F4F7040931C04B6
:100E80006DE174E085E0810F0E94A0060F900F9045
:100E90000F900F90DF91CF911F910F9108951092B5
:100EA0002504EACFE8EDF2E081E0808384E08183ED
:100EB000BF0182E00C94C305E8EDF2E081E080839D
:100EC00083E08183BF0182E00C94C305E8EDF2E08A
:100ED00081E0808382E08183BF010C94C305E8ED4B
:100EE000F2E081E080838183BF0182E00C94C3053E
:100EF000E8EDF2E0108284E08183BF0182E00C948F
:100F0000C305E8EDF2E0108283E08183BF0182E057
:100F10000C94C305E8EDF2E0108282E08183BF010A
:100F20000C94C305E8EDF2E0108281E08183BF01FB
:100F300082E00C94C305FC0101900020E9F7319791
:100F4000AF01481B590BBC018EEF92E00C944D0190
:100F50000C949B07CF93DF93C82F8CE191E00E9404
:100F6000A80780E80E942E05D82F86E391E0D111D2
:100F70003DC020E030E044E051E060E080E1C3307B
:100F800041F1B8F420E030E044E051E060E084E07A
:100F9000C130F9F020E030E044E051E060E088E06A
:100FA000C230B9F020E030E044E051E060E080E0A1
:100FB00010C020E030E044E051E060E084E1C43063
:100FC00041F020E030E044E051E060E088E1C530ED
:100FD00049F70E946E05809128040E942E05D82FA3
:100FE0008CE591E0D11102C08BE991E00E94A80745
:100FF0008D2FDF91CF910895CF93DF93D82F89EB79
:1010000091E00E94A80780E80E942E05C82F81ED7C
:1010100091E0C11115C020E030E04FE051E060E008
:1010200080E2D11184E20E946E05809128040E9422
:101030002E05C82F8AEF91E0C11102C087E392E02C
:101040000E94A8078C2FDF91CF9108951F920F92D5
:101050000FB60F9211242F933F934F935F936F938B
:101060007F938F939F93AF93BF93EF93FF938EEFF5
:1010700092E00E94CB01FF91EF91BF91AF919F91C0
:101080008F917F916F915F914F913F912F910F9031
:101090000FBE0F901F9018951F920F920FB60F92D0
:1010A00011242F938F939F93EF93FF93E0910E035F
:1010B000F0910F038081E0911403F091150382FDFC
:1010C0001BC09081809117038F5F8F73209118034D
:1010D000821741F0E0911703F0E0E250FD4F958F49
:1010E00080931703FF91EF919F918F912F910F9014
:1010F0000FBE0F901F9018958081F4CF1F920F9212
:101100000FB60F9211242F933F938F939F93AF931A
:10111000BF938091E6029091E702A091E802B0911E
:10112000E9023091E40223E0230F2D3758F50196B0
:10113000A11DB11D2093E4028093E6029093E70283
:10114000A093E802B093E9028091E0029091E1025D
:10115000A091E202B091E3020196A11DB11D80931E
:10116000E0029093E102A093E202B093E302BF9108
:10117000AF919F918F913F912F910F900FBE0F9044
:101180001F90189526E8230F0296A11DB11DD2CFFE
:101190001F920F920FB60F9211242F933F934F93EC
:1011A0005F936F937F938F939F93AF93BF93EF93CF
:1011B000FF931092850010928400E0910101F0915C
:1011C00002010995FF91EF91BF91AF919F918F918E
:1011D0007F916F915F914F913F912F910F900FBE33
:1011E0000F901F901895EF92FF920F931F93CF933C
:1011F000DF93EEEFF2E01382128288EE93E0A0E03C
:10120000B0E084839583A683B7838EE091E09183D9
:10121000808385EC90E09587848784EC90E09787C5
:10122000868780EC90E0918B808B81EC90E0938BB3
:10123000828B82EC90E0958B848B86EC90E0978B90
:10124000868B118E128E138E148EC7E1D4E08AE045
:10125000888B61E00E94AC0261E088890E94DA021A
:1012600060E082E00E94DA02E0EBF0E0E491A9E0C5
:10127000B4E0EC93ECE9F0E0E491F0E0EE0FFF1F56
:10128000E057FF4F8591949112969C938E931197FE
:101290001B961C921B971D961C921D971C961C92C8
:1012A0001C971A961C921A9719961C9219971896C1
:1012B0001C92189717961C92179716961C921697C1
:1012C00015961C92159714961C92149713961C92BF
:1012D000E2EDF3E092E3E92EF12CF382E28208E5FD
:1012E00012E015830483C8EED3E0D783C683128649
:1012F0001486138616861586108A1786128A118A16
:10130000148A138A168A158A108E178A128E118EE5
:10131000148E138E168E158E10A2178E12A211A285
:1013200014A213A210A617A212A611A614A613A601
:1013300016A615A684E090E091838083118610861E
:1013400062E00E94DA02EBE9F3E0F382E2821583C5
:101350000483D783C6831286148613861686158661
:10136000108A1786128A118A148A138A168A158A95
:10137000108E178A128E118E148E138E168E158E65
:1013800010A2178E12A211A214A213A210A617A2C5
:1013900012A611A614A613A616A615A685E090E01F
:1013A000918380831186108662E0DF91CF911F9137
:1013B0000F91FF90EF900C94DA02789484B58260DC
:1013C00084BD84B5816084BD85B5826085BD85B5E9
:1013D000816085BD80916E00816080936E00109267
:1013E00081008091810082608093810080918100E2
:1013F0008160809381008091800081608093800073
:101400008091B10084608093B1008091B0008160D0
:101410008093B00080917A00846080937A008091FC
:101420007A00826080937A0080917A008160809354
:101430007A0080917A00806880937A001092C100CF
:10144000E0910E03F0910F0382E08083E0910A03A4
:10145000F0910B031082E0910C03F0910D0380E1F9
:10146000808310921603E0911203F091130386E03B
:101470008083E0911003F09111038081806180836B
:10148000E0911003F0911103808188608083E091E6
:101490001003F0911103808180688083E091100334
:1014A000F091110380818F7D8083CFB7F894809174
:1014B000E502811127C0E4EAF0E08491E8EBF0E076
:1014C0009491E82FF0E0EE0FFF1FEE58FF4FA5912B
:1014D000B491EC91E92321F461E08AE00E94AC022E
:1014E00061E08AE00E94DA028CB580618CBD8CB527
:1014F00080648CBD61E08DE00E94DA0261E08BE0E7
:101500000E94DA028091E5028F5F8093E502CFBFEF
:1015100080E591E00E948C0060E0809127040E94A9
:10152000AC0280EC0E94DF0461E0809127040E94FD
:10153000AC0283E290E00197F1F780E48093280405
:1015400080E80E942E05882309F460C181ED91E0B6
:101550000E94A80789EB92E00E949B078EEC91E025
:101560000E949B0780E00E94FC0780E00E94AA077F
:1015700081E00E94AA0781E00E94FC0782E00E94AD
:10158000AA0783E00E94AA0784E00E94AA0785E0D8
:101590000E94AA071092280480E00E942E0560E0B5
:1015A00089E00E94DA0261E083E00E94DA0261E0F1
:1015B00088E00E94DA02F894109280001092810074
:1015C0008091810084608093810010928500109248
:1015D000840088E391E09093890080938800789458
:1015E00082E997E09093DE038093DD038AE897E039
:1015F0009093E4038093E30381E897E09093EE03F4
:101600008093ED0388E797E09093F4038093F303CE
:101610008FE697E09093A7038093A60386E697E072
:101620009093AD038093AC038CE597E09093B70360
:101630008093B60382E597E09093BD038093BC034B
:1016400022E0D22EC0E0D0E007E813E03EE6E32E31
:1016500033E0F32E82ED93E00E94A1038BE993E047
:101660000E94A1030E948F008CEC0E94C80084E4B9
:101670000E94C8002FB7F8948091E6029091E7028B
:10168000A091E802B091E9022FBF4091EA02509187
:10169000EB026091EC027091ED02841B950BA60B9E
:1016A000B70B893E9340A105B10508F43DC02FB7A3
:1016B000F8948091E6029091E702A091E802B0913F
:1016C000E9022FBF8093EA029093EB02A093EC0211
:1016D000B093ED020E948F008CEC0E94C8008EEB4C
:1016E0000E94C80098E0A92EB12CC12C9924939493
:1016F0000E9428018111C928990C81E0A81AB1081B
:10170000B9F7C092050188E0A82EB12CC12C99240C
:1017100093940E9428018111C928990C21E0A21AF2
:10172000B108B9F7C092060189E00E948302892BB3
:1017300009F0FDC080E591E00E948C0060E080919E
:1017400027040E94AC0280EA0E94DF0480E00E942D
:10175000DF04C82E61E0809127040E94AC02C0FE25
:10176000CAC081E60E94CF0640E061E08CE20E94A0
:10177000070580911704882389F0809118049091BF
:101780001904A0911A04B0911B04B0688093180446
:1017900090931904A0931A04B0931B04809125041C
:1017A000882389F08091180490911904A0911A045B
:1017B000B0911B04B0648093180490931904A09313
:1017C0001A04B0931B048091180490911904A091FD
:1017D0001A04B0911B048093FA029093FB02A09329
:1017E000FC02B093FD0280911C048093F902ADE1EC
:1017F000B4E0E1EFF2E090E09F01215F3240281772
:1018000039070CF080C02D912193F6CF82E592E04C
:101810000E94A80761E88AE20E94A20565EE89E2BB
:101820000E94A20563E888E20E94A2058CE792E08C
:101830000E94A80720E030E0A90161E080E20E9458
:101840006E0520E030E0A90161E084E20E946E05AF
:1018500020E030E0A90161E080E00E946E0520E018
:1018600030E0A90160E084E00E946E0520E030E0F5
:10187000A90161E088E00E946E0520E030E0A90146
:1018800060E080E10E946E0520E030E0A90161E0A7
:1018900084E10E946E0520E030E0A90160E088E16B
:1018A0000E946E05C0E360E08C2F0E94A20560E0FC
:1018B00080E18C0F0E94A20560E080E28C0F0E9404
:1018C000A205CF5FCE3379F760E080E60E94A205E3
:1018D00060E080E70E94A20563E08BE20E94A2051F
:1018E0006CE38CE00E94A20560E08DE00E94A205FE
:1018F0008BE992E02DCEC1FE06C081E70E94CF06A3
:1019000040E062E033CF8091FA029091FB02A09117
:10191000FC02B091FD02B6FF15C063E071E084E007
:101920000E94C305809104018F5F8093040120977A
:1019300009F490CE0E94B701882309F48BCE0E944F
:10194000000088CE8091F102833081F48091F20210
:101950008093F00290E00E9416038091F00260E014
:10196000811161E088E00E94AC02E1CF8430C9F4CB
:10197000F0920201E09201018091F2029091F30253
:1019800098278927982790938900809388008091D1
:101990006F008D2580936F001092F00290E080E040
:1019A000DACF8530D1F62091F2022093EF028091B8
:1019B000F3028093EE028091F4029091F502982751
:1019C0008927982790938900809388002093F002BC
:1019D000109302010093010180916F008260809357
:1019E0006F00BBCFEE0FFF1F0590F491E02D09941F
:1019F000F894FFCF016E03FE00000030405000005D
:101A00000000ED014D017A013A02AB0189019D010F
:101A10005374617274696E6720746F20536574200B
:101A200046696C746572210D0A00456E74657220FA
:101A3000436F6E66696775726174696F6E204D6F72
:101A40006465204661696C7572652E2E2E0D0A0044
:101A5000456E746572696E672050726576696F7540
:101A600073204D6F6465204661696C7572652E2E1A
:101A70002E0D0A53657474696E672046696C74652F
:101A800072204661696C7572652E2E2E0D0A005308
:101A9000657474696E672046696C7465722053754D
:101AA000636365737366756C6C210D0A0053746112
:101AB0007274696E6720746F20536574204D617372
:101AC0006B210D0A00456E746572696E6720436F65
:101AD0006E66696775726174696F6E204D6F6465BB
:101AE000204661696C7572652E2E2E0D0A00456EBA
:101AF000746572696E672050726576696F757320C0
:101B00004D6F6465204661696C7572652E2E2E0DD1
:101B10000A53657474696E67204D61736B2046616A
:101B2000696C7572652E2E2E0D0A005365747469EA
:101B30006E67204D61736B205375636365737366C5
:101B4000756C210D0A00456E746572696E672043DD
:101B50006F6E66696775726174696F6E204D6F6430
:101B600065205375636365737366756C210D0A0098
:101B700053657474696E672042617564726174653F
:101B8000205375636365737366756C210D0A00607D
:101B900053657474696E67204944204D6F646520F5
:101BA0004661696C7572652E2E2E0D0A00457272A3
:101BB0006F7220496E697469616C697A696E672019
:0C1BC0004D4350323531352E2E2E0000E2
:107800000C94343C0C94513C0C94513C0C94513CE1
:107810000C94513C0C94513C0C94513C0C94513CB4
:107820000C94513C0C94513C0C94513C0C94513CA4
:107830000C94513C0C94513C0C94513C0C94513C94
:107840000C94513C0C94513C0C94513C0C94513C84
:107850000C94513C0C94513C0C94513C0C94513C74
:107860000C94513C0C94513C11241FBECFEFD8E036
:10787000DEBFCDBF11E0A0E0B1E0ECE9FFE702C060
:1078800005900D92A230B107D9F712E0A2E0B1E065
:1078900001C01D92AD30B107E1F70E942D3D0C945F
:1078A000CC3F0C94003C982F959595959595959582
:1078B000905D8F708A307CF0282F295A8091C0000B
:1078C00085FFFCCF9093C6008091C00085FFFCCF60
:1078D0002093C6000895282F205DF0CF982F809127
:1078E000C00085FFFCCF9093C6000895EF92FF92F1
:1078F0000F931F93EE24FF2487018091C00087FD22
:1079000017C00894E11CF11C011D111D81E4E8164B
:1079100082E4F8068FE0080780E0180770F3E09132
:107920000401F091050109958091C00087FFE9CF1E
:107930008091C6001F910F91FF90EF9008950E94D3
:10794000763C982F8091C00085FFFCCF9093C600B5
:1079500091362CF490330CF09053892F089597555D
:10796000892F08951F930E949F3C182F0E949F3CCF
:107970001295107F810F1F9108951F93182F882350
:1079800021F00E94763C1150E1F71F9108951F935A
:10799000182F0E94763C803249F0809103018F5F5E
:1079A000809303018530C1F01F9108958091C0003C
:1079B00085FFFCCF84E18093C6008091C00085FFE5
:1079C000FCCF1093C6008091C00085FFFCCF80E102
:1079D0008093C6001F910895E0910401F091050184
:1079E00009951F9108950E94763C803241F0809164
:1079F00003018F5F80930301853081F008958091AA
:107A0000C00085FFFCCF84E18093C6008091C00058
:107A100085FFFCCF80E18093C6000895E0910401CA
:107A2000F09105010995089540E951E08823A1F0FE
:107A30002D9A28EE33E0FA013197F1F721503040CA
:107A4000D1F72D9828EE33E0FA013197F1F7215064
:107A50003040D1F7815061F708953F924F925F9285
:107A60006F927F928F929F92AF92BF92CF92DF924E
:107A7000EF92FF920F931F93CF93DF93000080E16B
:107A80008093C4001092C50088E18093C10086E015
:107A90008093C2005098589A259A81E00E94143D24
:107AA00024E1F22E9EE1E92E85E9D82E0FE0C02ECA
:107AB00010E1B12EAA24A394B1E49B2EA6E58A2E50
:107AC000F2E57F2EE0E26E2E79E4572E63E5462E36
:107AD00050E5352E0E94763C8033B1F18133B9F107
:107AE000803409F46FC0813409F476C0823409F41B
:107AF00085C0853409F488C0803531F1823521F1A3
:107B0000813511F1853509F485C0863509F48DC0BC
:107B1000843609F496C0843709F403C1853709F423
:107B200072C1863709F466C0809103018F5F80932C
:107B30000301853079F6E0910401F0910501099582
:107B40000E94763C803351F60E94F33CC3CF0E94E2
:107B5000763C803249F78091C00085FFFCCFF092DF
:107B6000C6008091C00085FFFCCF9092C600809136
:107B7000C00085FFFCCF8092C6008091C00085FFC9
:107B8000FCCF7092C6008091C00085FFFCCF609250
:107B9000C6008091C00085FFFCCF5092C600809146
:107BA000C00085FFFCCF4092C6008091C00085FFD9
:107BB000FCCF3092C6008091C00085FFFCCFB09210
:107BC000C60088CF0E94763C863808F4BDCF0E945C
:107BD000763C0E94F33C7ECF0E94763C803809F4CC
:107BE0009CC0813809F40BC1823809F43CC1883942
:107BF00009F48FC080E00E94C73C6CCF84E10E94F2
:107C0000BD3C0E94F33C66CF85E00E94BD3C0E94D3
:107C1000F33C60CF0E94763C809306010E94763C44
:107C2000809307010E94F33C55CF0E94763C80333D
:107C300009F41DC183E00E94BD3C80E00E94C73C66
:107C400049CF0E94763C809309020E94763C809343
:107C5000080280910C028E7F80930C020E94763C79
:107C6000853409F415C18091080290910902892B8D
:107C700089F000E010E00E94763CF801E85FFE4FDA
:107C800080830F5F1F4F80910802909109020817AF
:107C9000190788F30E94763C803209F045CF809125
:107CA0000C0280FF01C16091060170910701660F0F
:107CB000771F7093070160930601A0910802B091AD
:107CC00009021097C9F0E8E0F1E09B01AD014E0F09
:107CD0005F1FF999FECF32BD21BD819180BDFA9A17
:107CE000F99A2F5F3F4FE417F50799F76A0F7B1F4B
:107CF00070930701609306018091C00085FFFCCF5F
:107D0000F092C6008091C00085FFFCCFB092C60003
:107D1000E1CE83E00E94C73CDDCE82E00E94C73CFA
:107D2000D9CE0E94763C809309020E94763C8093D3
:107D300008028091060190910701880F991F909386
:107D40000701809306010E94763C853409F4A6C0A1
:107D500080910C028E7F80930C020E94763C8032D0
:107D600009F0B8CE8091C00085FFFCCFF092C6002C
:107D7000609108027091090261157105B9F140E046
:107D800050E080910C02A82FA170B82FB27011C0E2
:107D9000BB2309F45CC0E0910601F0910701319624
:107DA000F0930701E09306014F5F5F4F46175707B7
:107DB000E8F4AA2369F3F999FECF209106013091E6
:107DC000070132BD21BDF89A90B58091C00085FFB2
:107DD000FCCF9093C6002F5F3F4F30930701209355
:107DE00006014F5F5F4F4617570718F38091C00099
:107DF00085FDE5CE8091C00085FFF8CFE0CE81E023
:107E00000E94C73C67CE0E94763C803209F08CCE3F
:107E10008091C00085FFFCCFF092C6008091C00029
:107E200085FFFCCFE092C6008091C00085FFFCCFAB
:107E3000D092C6008091C00085FFFCCFC092C600E2
:107E40008091C00085FFFCCFB092C60043CEE09188
:107E50000601F091070194918091C00085FFFCCF4D
:107E60009093C6009CCF80E10E94C73C33CE0E9415
:107E7000763C0E94763C182F0E94763C112309F430
:107E800083C0113009F484C08FE00E94C73C22CE29
:107E900080910C02816080930C02E5CE80910C02EF
:107EA000816080930C0259CF809107018823880F4D
:107EB000880B8A2180930B02809106019091070123
:107EC000880F991F90930701809306018091080203
:107ED00080FF09C080910802909109020196909359
:107EE000090280930802F894F999FECF1127E091D6
:107EF0000601F0910701C8E0D1E08091080290915D
:107F00000902103091F40091570001700130D9F34B
:107F100003E000935700E89500915700017001308D
:107F2000D9F301E100935700E89509901990009169
:107F3000570001700130D9F301E000935700E89534
:107F40001395103498F011270091570001700130FB
:107F5000D9F305E000935700E895009157000170B0
:107F60000130D9F301E100935700E895329602976A
:107F700009F0C7CF103011F00296E5CF112480919F
:107F8000C00085FFB9CEBCCE8EE10E94C73CA2CD19
:0E7F900085E90E94C73C9ECDF894FFCF80008B
:00000001FF
